:020000040800F2
:10000000C80600205D02000877160008E915000800
:100010007516000863030008291A00080000000094
:10002000000000000000000000000000B1190008FE
:10003000650300080000000079160008B3190008E5
:1000400077020008770200087702000877020008AC
:10005000770200087702000877020008770200089C
:10006000770200087702000877020008770200088C
:10007000770200087702000877020008770200087C
:10008000770200087702000877020008770200086C
:10009000770200087702000877020008770200085C
:1000A000770200087702000877020008770200084C
:1000B000770200087702000877020008770200083C
:1000C000770200087702000877020008770200082C
:1000D000770200087702000877020008770200081C
:1000E000770200087702000877020008770200080C
:1000F000770200087702000877020008000000007D
:1001000077020008770200087702000877020008EB
:1001100077020008770200087702000877020008DB
:1001200077020008770200087702000877020008CB
:1001300077020008770200087702000877020008BB
:1001400077020008770200087702000877020008AB
:10015000770200087702000877020008770200089B
:10016000770200087702000877020008770200088B
:10017000770200087702000800000000000000007D
:10018000770200087702000877020008770200086B
:10019000770200087702000800000000000000005D
:1001A000000000000000000077020008770200084D
:1001B00077020008770200087702000800F002F8D2
:1001C00000F03CF80AA090E8000C82448344AAF1B5
:1001D0000107DA4501D100F031F8AFF2090EBAE8B3
:1001E0000F0013F0010F18BFFB1A43F0010318476B
:1001F000B8180000D8180000103A24BF78C878C199
:10020000FAD8520724BF30C830C144BF04680C601C
:10021000704700000023002400250026103A28BF64
:1002200078C1FBD8520728BF30C148BF0B60704768
:100230001FB501F013FC1FBD10B510BD00F058F83C
:100240001146FFF7F5FF01F000FC00F076F803B46B
:10025000FFF7F2FF03BC00F07DF80000094880477B
:1002600009480047FEE7FEE7FEE7FEE7FEE7FEE798
:10027000FEE7FEE7FEE7FEE704480549054A064BB0
:1002800070470000191A0008BD010008C8000020CE
:10029000C8060020C8020020C80200204FF000025B
:1002A00000B5134694469646203922BFA0E80C506C
:1002B000A0E80C50B1F12001BFF4F7AF090728BF47
:1002C000A0E80C5048BF0CC05DF804EB890028BFC3
:1002D00040F8042B08BF704748BF20F8022B11F0EC
:1002E000804F18BF00F8012B704770477047704768
:1002F000754600F02BF8AE4605006946534620F0DF
:100300000700854618B020B5FFF7B6FFBDE82040CE
:100310004FF000064FF000074FF000084FF0000BC1
:1003200021F00701AC46ACE8C009ACE8C009ACE874
:10033000C009ACE8C0098D46704710B50446AFF35C
:1003400000802046BDE81040FFF781BF004870479D
:100350006400002001491820ABBEFEE72600020021
:100360007047FEE7704772B6FEE700002DE9F04FD8
:10037000DFF82092002301260325A9F1040B85B0A4
:100380000F2709F1040AABF1040EFBE006FA03FCA7
:1003900012EA0C027ED00C7904F00304012C01D087
:1003A000022C20D1846800945C0005FA04F80494BF
:1003B000009C24EA08040094D1F80C80049C08FAFC
:1003C00004F8009C48EA0408C0F80880446824EA5D
:1003D0000C0491F804C0CCF3001C0CFA03FC4CEAAA
:1003E000040CC0F804C00C79E443A4070ED0C46820
:1003F0004FEA430805FA08FC24EA0C04D1F808C0C7
:100400000CFA08FC4CEA040CC0F80CC00C7904F09F
:100410000304022C15D1DC0800EB84040294246A46
:100420004FEA437C4FEADC6807FA08FC24EA0C0434
:10043000D1F810C00CFA08FC4CEA040C029CC4F879
:1004400020C004684FEA430805FA08FC24EA0C04BB
:1004500091F804C00CF0030C0CFA08FC4CEA040CF4
:10046000C0F800C04C6814F4403F13D04A4CD4F894
:1004700060C04CF0010CC4F860C0246E23F0030C83
:1004800004F001040094454C64440294A4684FEACB
:10049000837C00E075E04FEA1C7807FA08FC24EA48
:1004A0000C04B0F1904F06D0DFF8F4C0604505D1E0
:1004B0004FF0010C2EE04FF0000C2BE0DFF8E4C011
:1004C000604502D14FF0020C24E0DFF8DCC060454B
:1004D00002D14FF0030C1DE0DFF8D0C0604502D11F
:1004E0004FF0040C16E0DFF8C8C0604502D14FF0B1
:1004F000050C0FE0DFF8BCC0604502D14FF0060CE0
:1005000008E0DFF8B4C0604502D14FF0070C01E00D
:100510004FF0080C0CFA08FC4CEA040C029CC4F8DE
:1005200008C0D9F80040CC46D1F8048094435FEA73
:10053000C82800D51443CCF80040DAF80040D4466F
:10054000D1F8048094435FEA882800D51443CCF89E
:100550000040DBF80040DC46D1F8048094435FEAB9
:10056000883800D51443CCF80040DEF80040F4464B
:10057000D1F8048094435FEAC83800D51443CCF81E
:1005800000405B1C0A6832FA03F47FF4FFAE05B04A
:1005900000F014B8080401400010024000000140BF
:1005A0000004004800080048000C00480010004803
:1005B0000014004800180048001C004830BCBDE88A
:1005C000C08F0000014880687047000000000020D4
:1005D00090F84120202A24D190F84020012A20D0F0
:1005E000012280F84020242280F84120026813680C
:1005F00023F0010313600268136823F4805313602F
:10060000026813680B43136001680A6842F0010234
:100610000A60202180F84110002180F8401008462F
:1006200070470220704790F84120202A22D190F88C
:100630004020012A1ED0012280F84020242280F888
:1006400041200268136823F00103136002681368F5
:1006500023F4706343EA0121116001680A6842F0E3
:1006600001020A60202180F84110002180F840102A
:10067000084670470220704770B5040004D094F813
:100680004100002510B106E0012070BD84F8405003
:10069000204600F04FF8242084F8410020680168CB
:1006A00021F0010101606068216820F0706008613C
:1006B0002068816821F400418160E0680128A06819
:1006C00030D040F4044021688860E0680228206847
:1006D00041682AD021F40061416020684168144AD1
:1006E000114341602068C16821F40041C160D4E930
:1006F00004010843A16940EA01202168C860D4E9E7
:1007000007010843216808602068016841F0010181
:1007100001606564202084F84100256384F842501C
:10072000002070BD40F40040CDE741F40061D3E704
:100730000080000230B5ADB00446142126A8FFF7B2
:10074000ADFD98216846FFF7A9FD18492068884249
:100750002AD14020002500901595684600F028F920
:1007600008B1FFF700FE124CE06C40F04000E0647E
:10077000E06C00F040002B9000F0FEF84FF4C04019
:1007800026901220CDE927050320299004202A90E5
:1007900026A90848FFF7EAFDA06D40F40010A06507
:1007A000A06D00F400102B902DB030BD005400401F
:1007B0000010024000180048024881680278114485
:1007C000816070470000002010B50024032000F075
:1007D00063F80F2000F008F808B1012401E000F0F0
:1007E00025F8204610BD000070B50E4E05460024C9
:1007F000307898B14FF47A71B1FBF0F00A4909688A
:10080000B1FBF0F000F0DCFE40B9102D06D2002262
:100810002946501E00F020F8756000E001242046B3
:1008200070BD0000000000200C000020094808B541
:10083000016E41F001010166016E01F001010091BC
:10084000816D41F080518165806D00F08050009095
:1008500008BD000000100240F0B40E4B1B680C46AF
:10086000C3F30223C3F10705042D00D90425191D84
:10087000072901D2002300E0DB1E012606FA05F15C
:10088000491E214099409E40761E16403143F0BCDF
:1008900001F0CBB80CED00E0064900F00702086853
:1008A0004FF6FF03184040EA0220034A1043086055
:1008B000704700000CED00E00000FA052B492C4BBE
:1008C0000A6832214A432B4940B1B0F5007F0868DD
:1008D00029D020F4C06040F480602CE00868C0F3A8
:1008E0004120022804D051F8800F20F4807022E0CB
:1008F000D1F8800020F48070C1F88000086820F4EE
:10090000C06040F400700860B2FBF3F0401C00E0EF
:10091000401E4A69520501D50028F9D148694005B1
:100920000AD503207047C0F34120022806D051F8B1
:10093000800F40F48070086000207047D1F880007C
:1009400040F48070C1F88000086820F4C06040F472
:1009500000700860B2FBF3F0401C00E0401E4A69E2
:100960005205DBD50028F9D1D8E700000C000020A3
:1009700040420F00007000400248416841F400719D
:10098000416070470070004008480168C1F3412190
:10099000022906D0D0F88000C00505D54FF40070BC
:1009A00070474FF48060704700207047007000402F
:1009B0002DE9F84F044600260088FB4D3746010517
:1009C00004F1200B1ED5E06E40280AD003DC68B18C
:1009D000202804D10FE0602821D080281FD00126D4
:1009E0000FE0E86840F48030E86018E00021201D46
:1009F00000F044FE03E00021584600F0D3FE06005C
:100A00000DD037462088C0042BD5206FB0F5007F6D
:100A100016D00DDCC8B1B0F5807F0FD11AE0D5F843
:100A20009C00E16E20F0E0000843C5F89C00E9E777
:100A3000B0F5407F13D0B0F5806F10D001260FE0E5
:100A4000E86840F48030E86009E00021201D00F0F3
:100A500015FE03E00021584600F0A4FE0646F6B15C
:100A600037462068800360D5A86D4FF00008C000AD
:100A700009D4A86D40F08050A865A86D4FF001081A
:100A800000F080500090DFF824A3DAF8001041F461
:100A90008071CAF80010FFF795FD81460EE0D5F889
:100AA0009C00216F20F4E0600843C5F89C00D8E763
:100AB000FFF788FDA0EB090002282DD8DAF8000026
:100AC000C005F5D54EBBD5F8900010F4407015D098
:100AD000D4F89410814211D0D5F89000D5F8901038
:100AE00020F4407041F48031C5F89010D5F8901092
:100AF00021F48031C5F89010C5F89000C0077DD072
:100B0000FFF760FD814641F2883AACE0FFF75AFDFD
:100B1000A0EB0901514572D903263746B8F1000F01
:100B200003D0A86D20F08050A8652078C00707D0BA
:100B3000D5F88800E16B20F003000843C5F8880071
:100B40002078800707D5D5F88800216C20F00C00AC
:100B50000843C5F888002078400707D5D5F88800F5
:100B6000616C20F030000843C5F888002078000749
:100B700007D5D5F88800A16C20F0C0000843C5F85F
:100B800088002078C00607D5D5F88800E16C20F4ED
:100B900040700843C5F888002078800607D5D5F84E
:100BA0008800216D20F440600843C5F88800208843
:100BB000800507D5D5F88800616E20F440200843F1
:100BC000C5F888002088400507D5D5F88800A16EB3
:100BD00020F440100843C5F888002078400607D567
:100BE000D5F88800616D20F440500843C5F88800AE
:100BF000207800060AD5D5F8880001E038E032E018
:100C0000A16D20F440400843C5F888002088C00545
:100C100007D5D5F88800E16D20F440300843C5F8C9
:100C200088002068C00207D5D5F89C00216E20F00E
:100C300003000843C5F89C0020884FF0006880043A
:100C40004FF0806927D5D5F88800616F20F04060AB
:100C50000843C5F88800606F404513D1E86840F448
:100C60008010E86017E0D5F8900080077FF54EAF60
:100C7000D5F89000D4F8941020F440700843C5F8DB
:100C800090004BE7484506D10121201D00F0F6FCFD
:100C9000060000D00746206800032ED5A06F4FF451
:100CA00080418842D5F89C0004D140F48040C5F8CA
:100CB0009C000BE020F48040C5F89C00D5F888002B
:100CC000A26F20F040601043C5F88800A06F404537
:100CD00003D1E86840F4801004E0884204D1E86859
:100CE00040F48030E86008E0484506D10121201D2D
:100CF00000F0C4FC060000D007462068400318D569
:100D0000D5F88800E16F20F040600843C5F88800FE
:100D1000E06F404504D1E86840F48010E86008E0E6
:100D2000484506D10121201D00F0A8FC060000D096
:100D300007462088400414D5D5F88800D4F88010E0
:100D400020F040500843C5F88800D4F88000B0F186
:100D5000805F06D10221201D00F090FC060000D02B
:100D600007462068C00308D5D5F89C00D4F8841045
:100D700020F004000843C5F89C002068800208D5D4
:100D8000D5F89C00D4F8881020F018000843C5F866
:100D90009C002068400227D5286820F080502860F9
:100DA000FFF710FC80460BE000100240007000408E
:100DB000FFF708FCA0EB0800022801D9032612E087
:100DC00028688000F4D476B9D5F89C00D4F88C104B
:100DD00020F440300843C5F89C000221584600F03A
:100DE000E1FC060000D037462068C00110D5D5F8D8
:100DF0009C0054F8901F20F440100843C5F89C0054
:100E00002068B0F5001F03D1E86840F48010E86066
:100E1000384600F000B818BCBDE8E08F2DE9F04777
:100E20000E4605004FF000077ED0DFF87081D8F83D
:100E3000000000F00F00B0420CD2D8F8001021F0F2
:100E40000F013143C8F80010D8F8000000F00F007F
:100E5000B0427CD12878524C80070AD5A868A16896
:100E600001F0F001884204D9A16821F0F0010143AA
:100E7000A1602878C00749D06868DFF82891032866
:100E800010D0022814D00028206814D04005002873
:100E90005DDA00F08FF8484516D9A06810F0F00F21
:100EA0000BD011E02068800151D500F00FFDF2E772
:100EB00020688003EBE78007E9E7A06820F0F000F6
:100EC00040F08000A0608027A068696820F00300DF
:100ED0000843A060FFF776FB814641F2883A08E0BC
:100EE000FFF770FBA0EB0901514502D90320BDE8D3
:100EF000F087A068696800F00C00B0EB810FEFD1BB
:100F0000802F03D1A06820F0F000A060287880072F
:100F10000CD5A868A16801F0F001884206D2A1684A
:100F200021F0F001014300E011E0A160D8F80010C9
:100F3000404601F00F01B1420BD9016821F00F01C9
:100F400031430160006800F00F00B04201D0012081
:100F5000CDE72878400705D5A068E96820F4E0606F
:100F60000843A0602878000706D5A068296920F406
:100F7000605040EAC100A06000F01CF8A1680A4A75
:100F8000C1F30311515C01F01F01C840074908601B
:100F900007480068BDE8F047FFF726BC0020024084
:100FA0000010024000B4C404681A00080C000020BD
:100FB0000400002070B52549002318468A68CC68D3
:100FC00012F00C0204F00306214C4FEA640509D02C
:100FD0000C2A05D0042A32D0082A00D1284670BD38
:100FE000012E10D10B681B0704D4D1F89430C3F341
:100FF000032302E00B68C3F30313164E56F82330A5
:10100000DAB10C2AEBD1C86800F00300022818D02E
:10101000032818D01846CA68CB68C2F30312C3F37A
:1010200006234343521CB3FBF2F2C868C0F341608D
:10103000401C4000B2FBF0F070BD184670BD204669
:1010400070BD2046E7E72846E5E7000000100240B3
:101050000024F400781A00082DE9F84304006FD04A
:10106000FA4DA86800F00C06E86800F00307207845
:10107000C00664D576B10C2E01D1012F0AD0A0692B
:10108000002828687AD040F001002860FFF79AFA1B
:1010900080465DE02868800702D5A0690028DED080
:1010A000216A2868000703D5286800F0F00004E0F2
:1010B000D5F89400F02202EA1010814216D90846B1
:1010C00000F03CFC00283BD1286840F00800286074
:1010D0002868216A20F0F000084328606868E16908
:1010E00020F47F4040EA0120686016E0286840F064
:1010F000080028602868216A20F0F0000843286072
:101100006868E16920F47F4040EA0120686026B900
:10111000206A00F013FC0028D5D1FFF74BFFA96827
:10112000CB4AC1F30311515C01F01F01C840C9490A
:101130000860C9480068FFF757FB00287ED12EE001
:10114000CAE000BFFFF73EFAA0EB0800022876D8FD
:1011500028688007F6D5286840F0080028602868CD
:10116000216A20F0F000084328606868E16920F4F3
:101170007F4040EA0120686011E0FFE720F00100B5
:101180002860FFF71FFA804606E000BFFFF71AFA53
:10119000A0EB08000228DAD828688007F6D4207867
:1011A000C00740D0082E18D00C2E01D1032F14D028
:1011B0006068B0F5803F17D0B0F5A02F286817D031
:1011C00020F480302860286820F48020286060683F
:1011D000E0B1FFF7F7F9804614E02868800322D5D4
:1011E0006068002878D01EE0286840F48030EDE781
:1011F00040F480202860F7E7FFF7E4F9A0EB08004F
:101200006428A4D828688003F6D50CE0FFF7DAF943
:10121000804605E0FFF7D6F9A0EB0800642896D8D1
:1012200028688003F6D4207880073BD5042E11D09F
:101230000C2E01D1022F0DD0E06801E0AEE1FFE0FD
:10124000002828681ED040F480702860FFF7BAF9A3
:1012500007460CE0286840050CD5E0680028C1D09E
:1012600008E000BFFFF7AEF9C01B022893D828683A
:101270004005F7D56868217C20F0FE4040EA016017
:1012800068600FE020F480702860FFF79BF9074644
:1012900005E000BFFFF796F9C01B0228B1D8286807
:1012A0004005F7D42078000729D560690028D5F8D3
:1012B000940012D040F00100C5F89400FFF782F9C5
:1012C000074604E0FFF77EF9C01B022899D8D5F83D
:1012D00094008007F6D512E02BE120F00100C5F85C
:1012E0009400FFF76FF9074605E000BFFFF76AF9C2
:1012F000C01B022885D8D5F894008007F6D4207842
:10130000400766D5A86D0027C00008D4A86D40F03E
:101310008050A865A86D012700F0805000904F48CC
:101320000168C90512D40168814641F480710160E9
:10133000FFF748F9804605E0FFF744F9A0EB080005
:1013400002287DD8D9F80000C005F5D5A06801288D
:1013500016D00528D5F8900017D020F00100C5F868
:101360009000D5F8900020F0040000BFC5F8900070
:10137000A06841F28839C0B1FFF724F980460FE038
:10138000D5F8900040F00100F0E740F00400C5F807
:101390009000F5E7FFF716F9A0EB080149454FD893
:1013A000D5F890008007F5D50EE0FFF70BF98046E1
:1013B00006E000BFFFF706F9A0EB080149453FD85A
:1013C000D5F890008007F5D41FB1A86D20F08050AB
:1013D000A8652078800628D5606A0028D5F898008E
:1013E00012D040F00100C5F89800FFF7EBF807466F
:1013F00005E000BFFFF7E6F8C01B022820D8D5F8AB
:1014000098008007F6D510E020F00100C5F898009C
:10141000FFF7D8F8074604E0FFF7D4F8C01B02280E
:101420000ED8D5F898008007F6D4A06AF0B3022849
:1014300016D00C2E7DD0286820F08070286000E047
:10144000ABE0FFF7BFF80446AAE00000001002403E
:10145000681A00080C000020040000200070004002
:10146000E868E26A00F00301914228D1216B00F0A4
:10147000F00209011039914221D1626B00F4FE4162
:10148000B1EB022F1BD194F8382000F07841B1EB7A
:10149000C26F14D1A18F00F4C00249084905A1F51B
:1014A000001191420BD194F8401000E06EE0490821
:1014B000490600F0C060A1F1007181424FD00C2EAE
:1014C00077D02868400174D42868C00071D4286897
:1014D00020F080702860FFF775F8064605E000BF31
:1014E000FFF770F8801B022857D828688001F7D4CE
:1014F000F4E90B016FF00F0202EB01110843218A9E
:101500005204490802EB4151A26841EA0221084312
:10151000217D4FF07E42490802EB41610843217B67
:1015200040EAC160E968244A11400843E86028683D
:1015300000E03EE040F080702860E86840F0807095
:10154000E860FFF73FF8044605E000BFFFF73AF810
:10155000001B022821D828688001F7D527E02868D9
:10156000800124D4286840F080702860E86840F04A
:101570008070E860FFF726F8044604E0FFF722F8E1
:10158000001B022809D828688001F7D50FE000BFAA
:10159000FFF718F8001B022802D90320BDE8F883E2
:1015A00028688001F4D4E86804490840E860002015
:1015B000F4E70120F2E700000C809D01FCFFEEFE45
:1015C00010B5401EB0F1807F01D3012010BD4FF057
:1015D000E02460610F21601700F027FA0020A0616D
:1015E00007202061002010BDFEE700000A4882B0FD
:1015F000C16C41F00101C164C16C01F001010091B5
:10160000C16C41F04001C164C06C00F0400000902A
:1016100002B0FFF7B1B9000000100240134810B546
:10162000114901601249416000210122C0E9021202
:10163000016141618161C1610162FFF71DF808B17B
:10164000FEF791FE00210948FEF7C2FF08B1FEF740
:101650008AFE00210548FEF7E6FF002803D0BDE81A
:101660001040FEF780BE10BD005400401000002066
:10167000140D1000FEE7FEE7704700002DE9F04171
:10168000434C05468846E06800268107286806D056
:10169000E16801F0030181420FD170B11AE0012825
:1016A00004D0022805D0032807D108E02168890763
:1016B00001E021684905002907DB012664E0216873
:1016C000890302D421684903F5E7E16821F00301A9
:1016D0000143E160206820F080602060FEF772FF27
:1016E000074604E0FEF76EFFC01B022843D82068BF
:1016F0000001F7D46FF00F00B8F1000F1BD0B8F164
:10170000010F24D0297D4908420502EB4161AA68F6
:1017100041EA02216A6800EB0210014320691D4A78
:10172000104001432161206840F080602060FEF796
:1017300049FF074621E0A9682A7B090241EAC26104
:101740006A6800EB021001432069134AE8E7298A1E
:10175000124A490802EB4151AA6841EA02216A682B
:1017600000EB0210014320690D4AD9E7FEF72AFF7A
:10177000C01B022801D9032606E020680001F5D528
:101780002069A969084320613046BDE8F081000066
:10179000001002400F80FFF90F80FF070000E0FFFC
:1017A0000F809FFF2DE9F041434C05468846E068D5
:1017B00000268107286806D0E16801F00301814214
:1017C0000FD170B11AE0012804D0022805D00328F7
:1017D00007D108E02168890701E02168490500294F
:1017E00007DB012664E02168890302D421684903EC
:1017F000F5E7E16821F003010143E160206820F092
:1018000080502060FEF7DEFE074604E0FEF7DAFEB9
:10181000C01B022843D820688000F7D46FF00F0067
:10182000B8F1000F1BD0B8F1010F24D0297D490871
:10183000420502EB4161AA6841EA02216A6800EBB5
:101840000210014360691D4A104001436161206834
:1018500040F080502060FEF7B5FE074621E0A96801
:101860002A7B090241EAC2616A6800EB0210014367
:101870006069134AE8E7298A124A490802EB415194
:10188000AA6841EA02216A6800EB0210014360691C
:101890000D4AD9E7FEF796FEC01B022801D90326A0
:1018A00006E020688000F5D56069A9690843606199
:1018B0003046BDE8F0810000001002400F80FFF9C3
:1018C0000F80FF070000E0FF0F809FFF1748C168EF
:1018D00001F0030101291AD0022914D0032914D0E0
:1018E0000021C268C368C2F30312C3F306234B434B
:1018F000521CB3FBF2F1C068C0F34160401C4000D1
:10190000B1FBF0F070470A49EBE70A49E9E70168E3
:10191000090704D4D0F89410C1F3032102E0016850
:10192000C1F30311044A52F82110DAE70010024013
:101930000024F40000127A00781A0008F8B51A4D55
:1019400006460024A86DC00002D5FFF71DF80DE083
:10195000A86D40F08050A865A86D00F08050009000
:10196000FFF712F8A96D21F08051A965B0F5007F4D
:1019700003D0802E06D3022407E0802E05D9A02EA6
:10198000F9D801E0702E00D101240848016821F047
:101990000F0121430160006800F00F00A04201D058
:1019A0000120F8BD0020F8BD0010024000200240D8
:1019B0007047FEF701BF10B596B044216846FEF7A8
:1019C0006DFC142111A8FEF769FC4FF40070FEF7BE
:1019D00075FF08B172B6FEE71020009000240120C8
:1019E000CDE90604602008900A946846FFF734FBAE
:1019F00008B172B6FEE70F20CDE9110413941494D8
:101A0000002111A81594FFF709FA002801D072B639
:101A1000FEE716B010BD00000248016841F47001F5
:101A20000160704788ED00E0FEE70907090E002815
:101A300004DB00F1E02080F80014704700F00F0094
:101A400000F1E02080F8141D7047FEF7BDFEFFF79F
:101A5000B2FFFFF7CBFDFFF7E1FDFEE74FF040706F
:101A6000E1EE100A704700000000000000000000D6
:101A70000102030406070809A0860100400D0300C7
:101A8000801A060000350C0040420F0080841E00C2
:101A900000093D0000127A000024F40000366E01B7
:101AA0000048E801006CDC02C81A000800000020B1
:101AB00010000000F8010008D81A000810000020EB
:101AC000B806000014020008010000001000000029
:081AD0000000000000093D00C8
:04000005080001BD31
:00000001FF
